{
  "contractName": "Faucet",
  "abi": [
    {
      "inputs": [
        {
          "internalType": "address",
          "name": "",
          "type": "address"
        }
      ],
      "name": "funders",
      "outputs": [
        {
          "internalType": "bool",
          "name": "",
          "type": "bool"
        }
      ],
      "stateMutability": "view",
      "type": "function",
      "constant": true
    },
    {
      "inputs": [
        {
          "internalType": "uint256",
          "name": "",
          "type": "uint256"
        }
      ],
      "name": "lutFunders",
      "outputs": [
        {
          "internalType": "address",
          "name": "",
          "type": "address"
        }
      ],
      "stateMutability": "view",
      "type": "function",
      "constant": true
    },
    {
      "inputs": [],
      "name": "numOfFunders",
      "outputs": [
        {
          "internalType": "uint256",
          "name": "",
          "type": "uint256"
        }
      ],
      "stateMutability": "view",
      "type": "function",
      "constant": true
    },
    {
      "inputs": [],
      "name": "owner",
      "outputs": [
        {
          "internalType": "address",
          "name": "",
          "type": "address"
        }
      ],
      "stateMutability": "view",
      "type": "function",
      "constant": true
    },
    {
      "inputs": [],
      "name": "test3",
      "outputs": [
        {
          "internalType": "uint256",
          "name": "",
          "type": "uint256"
        }
      ],
      "stateMutability": "pure",
      "type": "function",
      "constant": true
    },
    {
      "inputs": [],
      "name": "testNum",
      "outputs": [
        {
          "internalType": "uint256",
          "name": "",
          "type": "uint256"
        }
      ],
      "stateMutability": "view",
      "type": "function",
      "constant": true
    },
    {
      "stateMutability": "payable",
      "type": "receive",
      "payable": true
    },
    {
      "inputs": [],
      "name": "emitLog",
      "outputs": [
        {
          "internalType": "bytes32",
          "name": "",
          "type": "bytes32"
        }
      ],
      "stateMutability": "pure",
      "type": "function",
      "constant": true
    },
    {
      "inputs": [],
      "name": "addFunds",
      "outputs": [],
      "stateMutability": "payable",
      "type": "function",
      "payable": true
    },
    {
      "inputs": [
        {
          "internalType": "uint256",
          "name": "withdrawAmount",
          "type": "uint256"
        }
      ],
      "name": "withdraw",
      "outputs": [],
      "stateMutability": "nonpayable",
      "type": "function"
    },
    {
      "inputs": [],
      "name": "getAllFunders",
      "outputs": [
        {
          "internalType": "address[]",
          "name": "",
          "type": "address[]"
        }
      ],
      "stateMutability": "view",
      "type": "function",
      "constant": true
    },
    {
      "inputs": [
        {
          "internalType": "uint256",
          "name": "index",
          "type": "uint256"
        }
      ],
      "name": "getFunderAtIndex",
      "outputs": [
        {
          "internalType": "address",
          "name": "",
          "type": "address"
        }
      ],
      "stateMutability": "view",
      "type": "function",
      "constant": true
    }
  ],
  "bytecode": "0x608060405234801561001057600080fd5b50336000806101000a81548173ffffffffffffffffffffffffffffffffffffffff021916908373ffffffffffffffffffffffffffffffffffffffff1602179055506064600181905550610a5a806100686000396000f3fe6080604052600436106100a05760003560e01c80638da5cb5b116100645780638da5cb5b146101a5578063a26759cb146101d0578063ae28f1ed146101da578063af7f2c9b14610205578063c218deca14610230578063f42c13bf1461026d576100a7565b8063031b3677146100ac5780630a8e8e01146100e95780631f8947ea146101145780632e1a7d4d146101515780636fbbb55d1461017a576100a7565b366100a757005b600080fd5b3480156100b857600080fd5b506100d360048036038101906100ce91906106af565b610298565b6040516100e09190610822565b60405180910390f35b3480156100f557600080fd5b506100fe6102b8565b60405161010b9190610878565b60405180910390f35b34801561012057600080fd5b5061013b600480360381019061013691906106d8565b6102c1565b60405161014891906107e5565b60405180910390f35b34801561015d57600080fd5b50610178600480360381019061017391906106d8565b6102f4565b005b34801561018657600080fd5b5061018f61038a565b60405161019c9190610800565b60405180910390f35b3480156101b157600080fd5b506101ba6104d0565b6040516101c791906107e5565b60405180910390f35b6101d86104f4565b005b3480156101e657600080fd5b506101ef610614565b6040516101fc9190610878565b60405180910390f35b34801561021157600080fd5b5061021a61061a565b6040516102279190610878565b60405180910390f35b34801561023c57600080fd5b50610257600480360381019061025291906106d8565b610620565b60405161026491906107e5565b60405180910390f35b34801561027957600080fd5b5061028261065d565b60405161028f919061083d565b60405180910390f35b60036020528060005260406000206000915054906101000a900460ff1681565b60006064905090565b60046020528060005260406000206000915054906101000a900473ffffffffffffffffffffffffffffffffffffffff1681565b80670de0b6b3a7640000811061033f576040517f08c379a000000000000000000000000000000000000000000000000000000000815260040161033690610858565b60405180910390fd5b3373ffffffffffffffffffffffffffffffffffffffff166108fc839081150290604051600060405180830381858888f19350505050158015610385573d6000803e3d6000fd5b505050565b6060600060025467ffffffffffffffff8111156103d0577f4e487b7100000000000000000000000000000000000000000000000000000000600052604160045260246000fd5b6040519080825280602002602001820160405280156103fe5781602001602082028036833780820191505090505b50905060005b6002548110156104c8576004600082815260200190815260200160002060009054906101000a900473ffffffffffffffffffffffffffffffffffffffff1682828151811061047b577f4e487b7100000000000000000000000000000000000000000000000000000000600052603260045260246000fd5b602002602001019073ffffffffffffffffffffffffffffffffffffffff16908173ffffffffffffffffffffffffffffffffffffffff168152505080806104c09061092f565b915050610404565b508091505090565b60008054906101000a900473ffffffffffffffffffffffffffffffffffffffff1681565b6000339050600360008273ffffffffffffffffffffffffffffffffffffffff1673ffffffffffffffffffffffffffffffffffffffff16815260200190815260200160002060009054906101000a900460ff166106115760006002600081548092919061055f9061092f565b9190505590506001600360008473ffffffffffffffffffffffffffffffffffffffff1673ffffffffffffffffffffffffffffffffffffffff16815260200190815260200160002060006101000a81548160ff021916908315150217905550816004600083815260200190815260200160002060006101000a81548173ffffffffffffffffffffffffffffffffffffffff021916908373ffffffffffffffffffffffffffffffffffffffff160217905550505b50565b60015481565b60025481565b60006004600083815260200190815260200160002060009054906101000a900473ffffffffffffffffffffffffffffffffffffffff169050919050565b60007f48656c6c6f20576f726c64000000000000000000000000000000000000000000905090565b600081359050610694816109f6565b92915050565b6000813590506106a981610a0d565b92915050565b6000602082840312156106c157600080fd5b60006106cf84828501610685565b91505092915050565b6000602082840312156106ea57600080fd5b60006106f88482850161069a565b91505092915050565b600061070d8383610719565b60208301905092915050565b610722816108dd565b82525050565b610731816108dd565b82525050565b6000610742826108a3565b61074c81856108bb565b935061075783610893565b8060005b8381101561078857815161076f8882610701565b975061077a836108ae565b92505060018101905061075b565b5085935050505092915050565b61079e816108ef565b82525050565b6107ad816108fb565b82525050565b60006107c0602d836108cc565b91506107cb826109a7565b604082019050919050565b6107df81610925565b82525050565b60006020820190506107fa6000830184610728565b92915050565b6000602082019050818103600083015261081a8184610737565b905092915050565b60006020820190506108376000830184610795565b92915050565b600060208201905061085260008301846107a4565b92915050565b60006020820190508181036000830152610871816107b3565b9050919050565b600060208201905061088d60008301846107d6565b92915050565b6000819050602082019050919050565b600081519050919050565b6000602082019050919050565b600082825260208201905092915050565b600082825260208201905092915050565b60006108e882610905565b9050919050565b60008115159050919050565b6000819050919050565b600073ffffffffffffffffffffffffffffffffffffffff82169050919050565b6000819050919050565b600061093a82610925565b91507fffffffffffffffffffffffffffffffffffffffffffffffffffffffffffffffff82141561096d5761096c610978565b5b600182019050919050565b7f4e487b7100000000000000000000000000000000000000000000000000000000600052601160045260246000fd5b7f576974686472617720616d6f756e742073686f756c64206265206c657373207460008201527f68616e206f6e6520657468657200000000000000000000000000000000000000602082015250565b6109ff816108dd565b8114610a0a57600080fd5b50565b610a1681610925565b8114610a2157600080fd5b5056fea26469706673582212205d378c086681ab97109abc49c5f4f38f2c08ba8398f731cf6ed1470e2556864c64736f6c63430008040033",
  "immutableReferences": {},
  "source": "// SPDX-License-Identifier: MIT\npragma solidity >=0.4.22 <0.9.0;\n\nimport \"./Owned.sol\";\nimport \"./Logger.sol\";\nimport \"./IFaucet.sol\";\n\ncontract Faucet is Owned, Logger, IFaucet {\n\n    uint public numOfFunders;\n    mapping(address => bool) public funders;\n    mapping(uint => address) public lutFunders;\n\n\n    modifier limitWithdraw(uint withdrawAmount){\n        require(withdrawAmount < 1000000000000000000, \"Withdraw amount should be less than one ether\");\n        _;\n    }\n\n    function emitLog() public override pure returns (bytes32){\n        return \"Hello World\";\n    }\n\n    receive() external payable {}\n\n\n    function addFunds() external payable override {\n        address funder = msg.sender;\n        if(!funders[funder]){\n            uint index = numOfFunders++;\n            funders[funder] = true;\n            lutFunders[index] = funder;\n        }\n    }\n\n    function withdraw(uint withdrawAmount) external override limitWithdraw(withdrawAmount) {\n        payable(msg.sender).transfer(withdrawAmount);\n    }\n\n    function getAllFunders() external view returns(address[] memory){\n        address[] memory _funders = new address[](numOfFunders);\n\n        for (uint256 i = 0; i < numOfFunders; i++) {\n          _funders[i] = lutFunders[i];  \n        } \n\n        return _funders;\n    }\n\n    function getFunderAtIndex(uint index) external view returns(address){\n        return lutFunders[index];\n    }\n}\n\n// const instance = await Faucet.deployed();\n// instance.addFunds({from: accounts[1], value: \"1500000000000000000\"})\n// instance.addFunds({from: accounts[2], value: \"1500000000000000000\"})\n// instance.withdraw(\"5000000000000000000\", {from: accounts[1]})",
  "sourcePath": "/Users/antonio.salazar/Documents/Training/Udemy/dapp-development/faucet/contracts/FaucetContract.sol",
  "compiler": {
    "name": "solc",
    "version": "0.8.4+commit.c7e474f2.Emscripten.clang"
  },
  "schemaVersion": "3.4.3",
  "updatedAt": "2021-12-22T21:39:07.077Z",
  "networkType": "ethereum",
  "devdoc": {
    "kind": "dev",
    "methods": {},
    "version": 1
  },
  "userdoc": {
    "kind": "user",
    "methods": {},
    "version": 1
  }
}